:020000040000FA
:100000000A128A11F32F00308A000408840A82073A
:1000100000344134443443342034203443344F34A6
:1000200055344E34543445345234203446344F34ED
:100030005434003420342E342034203456342034C8
:100040002034203420342034203420342E34203402
:100050002034563400344C34413442344F3452341A
:10006000413454344F34523449344F3420343534CD
:10007000203420340034453473347434753461349E
:10008000723464346F3420344D3461346E346334EC
:1000900069346F34003449343234433420342034EA
:1000A000003431343834303432343734003430347E
:1000B00030340034313430340034303431340034AE
:1000C0003134313400343034323400343134323469
:1000D0000034303433340034313433340034303489
:1000E0003434003431343434003430343534003472
:1000F000313435340034303436340034313436342D
:100100000034303437340034303438340034303450
:04011000393400344A
:10011E00831603131419942895288F2811081F3954
:10012E00031D9A289B288F28080083120313A10110
:10013E00F81FA228A328AA28F709F809F70A031915
:10014E00F80AA101A10AFA1FAD28AE28B728F909AD
:10015E00FA09F90A0319FA0A0130FB007B08A10615
:10016E00A201A301770878040319BE28BF28F62838
:10017E00A001A00ACD2801300310F70DF80DFF3EA7
:10018E00031DC3280130FB007B08A007F81FD028F1
:10019E00D128C22801300310A20DA30DFF3E031D6E
:1001AE00D22878087A02031DDE2877087902031C0C
:1001BE00E128E228E9287708F9027808031CFA03F7
:1001CE00FA02221401300310F80CF70CFF3E031D47
:1001DE00EA280130A002031DF528F628D1282108AF
:1001EE000319FA28FB280029A209A309A20A031958
:1001FE00A30A2308F8002208F70008000A128A153D
:10020E0082260A128A110A128A159B250A128A114F
:10021E000030F800F9000130FA000030FB003330F6
:10022E0083120313B9003908FC000A128A155726E7
:10023E000A128A110530F8000030F9000230FA0077
:10024E000030FB00493083120313B9003908FC005B
:10025E000A128A1557260A128A118230F0000030CF
:10026E00F1000A128A15AE260A128A110030F80021
:10027E00F9000130FA000030FB0023308312031323
:10028E00B9003908FC000A128A1557260A128A117B
:10029E000530F8000030F9000230FA000030FB00A3
:1002AE00433083120313B9003908FC000A128A1571
:1002BE0057260A128A11F430F0000130F1000A12AA
:1002CE008A15AE260A128A110030F800F9000130A4
:1002DE00FA000030FB00013083120313B900390815
:1002EE00FC000A128A1557260A128A110030F800ED
:1002FE00F9000230FA000030FB00123083120313B3
:10030E00B9003908FC000A128A1557260A128A11FA
:10031E000A128A15F0250A128A110A128A15AA25BE
:10032E000A128A113130F0000030F1000A128A15DB
:10033E00BC250A128A110030F000F1000A128A154B
:10034E00DB260A128A11710883120313CF0070087C
:10035E00CE000A128A15B3250A128A111430F00043
:10036E000030F1000A128A15AE260A128A110A12FC
:10037E008A15AA250A128A113330F0000030F100D6
:10038E000A128A15BC250A128A110030F000F100FB
:10039E000A128A15DB260A128A11710883120313B8
:1003AE00CD007008CC000A128A15B3250A128A11E4
:1003BE001430F0000030F1000A128A15AE260A122F
:1003CE008A110A128A15AA250A128A113530F000EE
:1003DE000030F1000A128A15BC250A128A1100306B
:1003EE00F000F1000A128A15DB260A128A11710832
:1003FE0083120313CB007008CA000A128A15B325A4
:10040E000A128A111430F0000030F1000A128A1517
:10041E00AE260A128A11073083120313A100003090
:10042E00A2004D08A4004C08A3000A128A1135221E
:10043E000A128A11831203134E080A128A11A2237A
:10044E000A128A11831203134A080A128A11C92545
:10045E000A128A1194290A128A110028682B22087E
:10046E00F9002108F8000230FA000030FB004F308E
:10047E00A5002508FC000A128A1557260A128A11B1
:10048E00A12B2208F9002108F8000230FA000030F2
:10049E00FB005530A5002508FC000A128A155726C8
:1004AE000A128A11A12B2208F9002108F800023045
:1004BE00FA000030FB005B30A5002508FC000A1294
:1004CE008A1557260A128A11A12B2208F900210833
:1004DE00F8000230FA000030FB006130A50025085C
:1004EE00FC000A128A1557260A128A11A12B22081D
:1004FE00F9002108F8000230FA000030FB006730E6
:10050E00A5002508FC000A128A1557260A128A1120
:10051E00A12B2208F9002108F8000230FA00003061
:10052E00FB006D30A5002508FC000A128A1557261F
:10053E000A128A11A12B2208F9002108F8000230B4
:10054E00FA000030FB007330A5002508FC000A12EB
:10055E008A1557260A128A11A12B2208F9002108A2
:10056E00F8000230FA000030FB007930A5002508B3
:10057E00FC000A128A1557260A128A11A12B22088C
:10058E00F9002108F8000230FA000030FB007C3040
:10059E00A5002508FC000A128A1557260A128A1190
:1005AE00A12B2208F9002108F8000230FA000030D1
:1005BE00FB007F30A5002508FC000A128A1557267D
:1005CE000A128A11A12B2208F9002108F800023024
:1005DE00FA000030FB005230A5002508FC000A127C
:1005EE008A1557260A128A11A12B2208F900210812
:1005FE00F8000230FA000030FB005830A500250844
:10060E00FC000A128A1557260A128A11A12B2208FB
:10061E00F9002108F8000230FA000030FB005E30CD
:10062E00A5002508FC000A128A1557260A128A11FF
:10063E00A12B2208F9002108F8000230FA00003040
:10064E00FB006430A5002508FC000A128A15572607
:10065E000A128A11A12B2208F9002108F800023093
:10066E00FA000030FB006A30A5002508FC000A12D3
:10067E008A1557260A128A11A12B2208F900210881
:10068E00F8000230FA000030FB007030A50025089B
:10069E00FC000A128A1557260A128A11A12B22086B
:1006AE00F9002108F8000230FA000030FB00763025
:1006BE00A5002508FC000A128A1557260A128A116F
:1006CE00A12B831203132408003A03196F2B562B08
:1006DE002308003A0319362A013A0319482A033A25
:1006EE0003195A2A013A03196C2A073A03197E2A6A
:1006FE00013A0319902A033A0319A22A013A03195F
:10070E00B42A0F3A0319C62A013A0319D82A033A12
:10071E000319EA2A013A0319FC2A073A03190E2B88
:10072E00013A0319202B033A0319322B013A03190C
:10073E00442B562B080083120313B600FA303602F0
:10074E00031CAA2BAB2BAF2BFA30A4002408B60047
:10075E00B8013230F7000030F8003230F0000030CF
:10076E00F1003608A400A5012408F2002508F300C4
:10077E000A128A1541270A128A11831203133608A8
:10078E00A60070082602F90071090318013EFA004E
:10079E000A128A119C200A128A11770883120313F7
:1007AE00A7002708AF003608A400A5012408F20010
:1007BE002508F3003230F0000030F1000A128A15DD
:1007CE0041270A128A11710883120313B3007008AD
:1007DE00B2000530F7000030F8003230F000003083
:1007EE00F1003608A400A5012408F2002508F30044
:1007FE000A128A1541270A128A11700883120313EE
:10080E00A6007108A7000530F0000030F100330893
:10081E00F3003208F2000A128A1541270A128A11D1
:10082E007008831203132602F9007108031C710A63
:10083E002702FA000A128A119C200A128A117708DE
:10084E0083120313A8002808B0003608A400A501DF
:10085E002408F2002508F3003230F0000030F100D9
:10086E000A128A1541270A128A117108831203137C
:10087E00B3007008B2000530F0000030F10033080C
:10088E00F3003208F2000A128A1541270A128A1161
:10089E00700883120313A4002407A5002508B100D5
:1008AE00293084000630FF0083138001840AFF0B79
:1008BE005B2C2F08A400A5012408A9002508AA0076
:1008CE003008A400A5012408AB002508AC003108AF
:1008DE00A400A5012408AD002508AE00B401B501A1
:1008EE00831203133408A4002407293E84008313C3
:1008FE000008A5002508B70034083504031D882C10
:10090E00892C8A2CB80134033504031D8F2C902CAE
:10091E00942C0230A4002408B800023034063504AA
:10092E00031D9A2C9B2C9F2C0330A4002408B80086
:10093E003708031DA32CA42CB82C3808A400A5013D
:10094E002408F8002508F9000230FA000030FB00F8
:10095E005030A6002608FC000A128A1557260A12E5
:10096E008A11831203133703031DBE2CBF2CD32C05
:10097E003808A400A5012408F8002508F900023063
:10098E00FA000030FB005630A6002608FC000A12C2
:10099E008A1557260A128A1102308312031337065C
:1009AE00031DDA2CDB2CEF2C3808A400A50124083B
:1009BE00F8002508F9000230FA000030FB005C3028
:1009CE00A6002608FC000A128A1557260A128A115A
:1009DE000330831203133706031DF62CF72C0B2D51
:1009EE003808A400A5012408F8002508F9000230F3
:1009FE00FA000030FB006230A6002608FC000A1246
:100A0E008A1557260A128A110430831203133706E9
:100A1E00031D122D132D272D3808A400A50124081F
:100A2E00F8002508F9000230FA000030FB006830AB
:100A3E00A6002608FC000A128A1557260A128A11E9
:100A4E000530831203133706031D2E2D2F2D432D34
:100A5E003808A400A5012408F8002508F900023082
:100A6E00FA000030FB006E30A6002608FC000A12C9
:100A7E008A1557260A128A11063083120313370677
:100A8E00031D4A2D4B2D5F2D3808A400A501240807
:100A9E00F8002508F9000230FA000030FB0074302F
:100AAE00A6002608FC000A128A1557260A128A1179
:100ABE000730831203133706031D662D672D7B2D1A
:100ACE003808A400A5012408F8002508F900023012
:100ADE00FA000030FB007A30A6002608FC000A124D
:100AEE008A1557260A128A11083083120313370605
:100AFE00031D822D832D972D3808A400A5012408EF
:100B0E00F8002508F9000230FA000030FB007D30B5
:100B1E00A6002608FC000A128A1557260A128A1108
:100B2E000930831203133706031D9E2D9F2DB32DFF
:100B3E003808A400A5012408F8002508F9000230A1
:100B4E00FA000030FB008030A6002608FC000A12D6
:100B5E008A1557260A128A11013083120313B4071D
:100B6E000318B50A0030B5073508803AFF0080300B
:100B7E007F02031DC42D03303402031CC72DC82D64
:100B8E00772C080083120313B600FA303602031CCA
:100B9E00D12DD22DD62DFA30A4002408B600B801DE
:100BAE003230F7000030F8003230F0000030F10043
:100BBE003608A400A5012408F2002508F3000A1245
:100BCE008A1541270A128A11831203133608A600CA
:100BDE0070082602F90071090318013EFA000A1284
:100BEE008A119C200A128A11770883120313A70018
:100BFE002708AF003608A400A5012408F200250836
:100C0E00F3003230F0000030F1000A128A1541274D
:100C1E000A128A11710883120313B3007008B2000E
:100C2E000530F7000030F8003230F0000030F100EF
:100C3E003608A400A5012408F2002508F3000A12C4
:100C4E008A1541270A128A11700883120313A6000F
:100C5E007108A7000530F0000030F1003308F300F2
:100C6E003208F2000A128A1541270A128A117008F8
:100C7E00831203132602F9007108031C710A27025E
:100C8E00FA000A128A119C200A128A11770883121E
:100C9E000313A8002808B0003608A400A5012408F4
:100CAE00F2002508F3003230F0000030F1000A1295
:100CBE008A1541270A128A11710883120313B30091
:100CCE007008B2000530F0000030F1003308F30078
:100CDE003208F2000A128A1541270A128A11700888
:100CEE0083120313A4002407A5002508B1002930A0
:100CFE0084000630FF0083138001840AFF0B822ECE
:100D0E002F08A400A5012408A9002508AA00300870
:100D1E00A400A5012408AB002508AC003108A400EE
:100D2E00A5012408AD002508AE00B401B50183125B
:100D3E0003133408A4002407293E840083130008FB
:100D4E00A5002508B70034083504031DAF2EB02EBC
:100D5E00B42E0B30A4002408B80034033504031D50
:100D6E00B92EBA2EBE2E0D30A4002408B8000230C3
:100D7E0034063504031DC42EC52EC92E0E30A40014
:100D8E002408B8003708031DCD2ECE2EE22E3808CB
:100D9E00A400A5012408F8002508F9000230FA0085
:100DAE000030FB005030A6002608FC000A128A15FF
:100DBE0057260A128A11831203133703031DE82ED6
:100DCE00E92EFD2E3808A400A5012408F8002508F8
:100DDE00F9000230FA000030FB005630A60026085B
:100DEE00FC000A128A1557260A128A110230831243
:100DFE0003133706031D042F052F192F3808A400DF
:100E0E00A5012408F8002508F9000230FA00003088
:100E1E00FB005C30A6002608FC000A128A15572635
:100E2E000A128A110330831203133706031D202F73
:100E3E00212F352F3808A400A5012408F800250815
:100E4E00F9000230FA000030FB006230A6002608DE
:100E5E00FC000A128A1557260A128A1104308312D0
:100E6E0003133706031D3C2F3D2F512F3808A400C6
:100E7E00A5012408F8002508F9000230FA00003018
:100E8E00FB006830A6002608FC000A128A155726B9
:100E9E000A128A110530831203133706031D582FC9
:100EAE00592F6D2F3808A400A5012408F800250835
:100EBE00F9000230FA000030FB006E30A600260862
:100ECE00FC000A128A1557260A128A11063083125E
:100EDE0003133706031D742F752F892F3808A400AE
:100EEE00A5012408F8002508F9000230FA000030A8
:100EFE00FB007430A6002608FC000A128A1557263D
:100F0E000A128A110730831203133706031D902F1E
:100F1E00912FA52F3808A400A5012408F800250854
:100F2E00F9000230FA000030FB007A30A6002608E5
:100F3E00FC000A128A1557260A128A1108308312EB
:100F4E0003133706031DAC2FAD2FC12F3808A40095
:100F5E00A5012408F8002508F9000230FA00003037
:100F6E00FB007D30A6002608FC000A128A155726C3
:100F7E000A128A110930831203133706031DC82F74
:100F8E00C92FDD2F3808A400A5012408F800250874
:100F9E00F9000230FA000030FB008030A60026086F
:100FAE00FC000A128A1557260A128A110130831282
:100FBE000313B4070318B50A0030B5073508803A95
:100FCE00FF0080307F02031DEE2F03303402031C1E
:100FDE00F12FF22F9E2E080083133A3084005030EA
:100FEE000A128A15A2250A128A1183010A128A117F
:020FFE000529C3
:101B360001300A128A15C6250A128A1508006400A1
:101B46008001840A0406031900340406A32D0A1230
:101B56008A118F200A128A1583160313111408009E
:101B66000A128A118F200A128A1583160313111579
:101B760008000A128A118F200A128A157008831229
:101B8600031393000800F700831203130813770862
:101B960086000A128A151F260A128A150230F000DC
:101BA6000030F1000A128A15AE260A128A150800BC
:101BB600F500831203130817750886000A128A15A2
:101BC6001F260A128A153230F0000030F1000A1280
:101BD6008A1507260A128A15080083160317880134
:101BE6008901831603138501003083120313A300B2
:101BF6000130A2008630A100A030A0000A128A158A
:101C060009270A128A150800F301F401102E013083
:101C1600F3070318F40A0030F4077408803AF20058
:101C26007108803A7202031D1A2E70087302031C93
:101C36001D2E1E2E0A2E0800831203138817053048
:101C4600F0000030F1000A128A1507260A128A15DA
:101C56008312031388130530F0000030F1000A12D6
:101C66008A1507260A128A150800F7004A2E7708F1
:101C760084000A128A1103200A128A150A128A158A
:101C8600DB250A128A150130F6007608F707770871
:101C960084000A128A1103200A128A15003A031DCB
:101CA600552E562E3A2E0800682E7808803EFD00E6
:101CB6007D0883120313A000752E7808C03EFD0030
:101CC6007D0883120313A000752E7B08003A0319C2
:101CD6006D2E582E7A08013A0319582E033A031925
:101CE600602E582E20080A128A15C6250A128A1551
:101CF6007C080A128A1538260A128A1508008316E5
:101D06000313081388138601831203130813881319
:101D160086013230F0000030F1000A128A15AE2634
:101D26000A128A1502300A128A15C6250A128A155F
:101D360038300A128A15C6250A128A150C300A127C
:101D46008A15C6250A128A1506300A128A15C6256C
:101D56000A128A150800F301F401CC2EF501F601EA
:101D66000130F5070318F60A0030F6077608803AC0
:101D7600FF0080307F02031DC22EFF307502031C58
:101D8600C52EC62EB32E0130F3070318F40A003011
:101D9600F4077408803AF2007108803A7202031D53
:101DA600D62E70087302031CD92EDA2EB12E080027
:101DB6000A128A118F200A128A15831603139115A7
:101DC6000A128A118F200A128A1583120313130826
:101DD600F200F3017208F4007308F5000A128A1182
:101DE6008F200A128A1570037104031DFB2EFC2E28
:101DF600002F831603139112032F831603139116D4
:101E060011167508F1007408F000080028308312D6
:101E160003139400831603139101831203132008FE
:101E2600A4002108A5002208A6002308A700023066
:101E36000310A40DA50DA60DA70DFF3E031D1B2F18
:101E46002708F3002608F2002508F1002408F00010
:101E56000030F7007A30F6001230F5000030F4005A
:101E66000A128A159A270A128A157008FF3E8316E7
:101E7600031393009401871507160800F601F31F54
:101E8600452F462F4D2FF209F309F20A0319F30ADB
:101E9600F601F60AF11F502F512F562FF009F109BE
:101EA600F00A0319F10A7008710403195B2F5C2FFD
:101EB6008B2FF501F50A6A2F01300310F00DF10D95
:101EC600FF3E031D602F0130F4007408F507F11F73
:101ED6006D2F6E2F5F2F71087302031D742F70080C
:101EE6007202031C772F782F7E2F7008F20271087A
:101EF600031CF303F30201300310F10CF00CFF3E58
:101F0600031D7F2F0130F502031D8A2F8B2F6E2FA5
:101F1600760803198F2F902F952FF209F309F20AED
:101F26000319F30A7308F1007208F0000800003084
:101F3600FC000030FB000030FA000030F9007308A6
:101F46007204710470040319A92FAA2FF72FFD013B
:101F5600FD0ABA2F0130F8000310F00DF10DF20D55
:101F6600F30DF80BAF2F0130F8007808FD07F31FCB
:101F7600BD2FBE2FAD2F0130F8000310F90DFA0D5D
:101F8600FB0DFC0DF80BC02F73087702031DD52F30
:101F960072087602031DD52F71087502031DD52F11
:101FA60070087402031CD82FD92FE82F7008F4028A
:101FB6007108031C710FF5027208031C720FF602FA
:101FC6007308031C730FF702791401300310F30C26
:101FD600F20CF10CF00CFF3E031DE92F0130FD025F
:101FE600031DF62FF72FBE2F7C08F3007B08F200A7
:0A1FF6007A08F1007908F0000800F5
:04400E00F5E3FFFFD8
:00000001FF
