:020000040000FA
:100000000A128A11F32F00308A000408840A82073A
:100010000034203420342034203420342034203460
:100020002034203420342034203420342034203430
:10003000203400344534733474347534613472348C
:1000400064346F3420344D3461346E346334693435
:100050006F34003420344134443443342034433446
:100060004F344E345434203446344F3454344F34A7
:1000700000343134383430343234373400343134AD
:1000800030340034313431340034313432340034DB
:100090003134333400343134343400343134353491
:1000A00000343134363400343834003439340034D8
:1001140001300A128A11C2200A128A1108006400EE
:100124008001840A040603190034040692280A1282
:100134008A11B5200A128A118316031311140800B8
:100144000A128A11B5200A128A1183160313111593
:1001540008000A128A11B5200A128A117008831243
:10016400031393000800831603131419BA28BB2839
:10017400B52811081F39031DC028C128B528080057
:10018400F700831203130813770886000A128A11F2
:100194001B210A128A110230F0000030F1000A1209
:1001A4008A11AA210A128A110800F5008312031386
:1001B4000817750886000A128A111B210A128A116F
:1001C4003230F0000030F1000A128A1103210A12C1
:1001D4008A11080083160317880189018316031303
:1001E4008501003083120313A3000130A20086307E
:1001F400A100A030A0000A128A1105220A128A1155
:100204000800F301F4010C290130F3070318F40A80
:100214000030F4077408803AF2007108803A7202E0
:10022400031D162970087302031C19291A290629AB
:1002340008008312031388170530F0000030F10022
:100244000A128A1103210A128A11831203138813D2
:100254000530F0000030F1000A128A1103210A125D
:100264008A110800F7004629770884000A128A11C7
:1002740003200A128A110A128A11D7200A128A113B
:100284000130F6007608F707770884000A128A110D
:1002940003200A128A11003A031D512952293629D2
:1002A400080064297808803EFD007D08831203134A
:1002B400A00071297808C03EFD007D088312031355
:1002C400A00071297B08003A0319692954297A0886
:1002D400013A03195429033A03195C2954292008C3
:1002E4000A128A11C2200A128A117C080A128A117F
:1002F40034210A128A110800831603130813881381
:100304008601831203130813881386013230F00028
:100314000030F1000A128A11AA210A128A1102304D
:100324000A128A11C2200A128A1138300A128A115A
:10033400C2200A128A110C300A128A11C2200A122F
:100344008A1106300A128A11C2200A128A11080080
:10035400F301F401C829F501F6010130F50703188A
:10036400F60A0030F6077608803AFF0080307F02F4
:10037400031DBE29FF307502031CC129C229AF2900
:100384000130F3070318F40A0030F4077408803AC4
:10039400F2007108803A7202031DD22970087302B8
:1003A400031CD529D629AD2908000A128A11B520C3
:1003B4000A128A118316031391150A128A11B520A1
:1003C4000A128A11831203131308F200F30172084C
:1003D400F4007308F5000A128A11B5200A128A1172
:1003E40070037104031DF729F829FC2983160313EC
:1003F4009112FF2983160313911611167508F10043
:100404007408F00008002830831203139400831644
:1004140003139101831203132008A4002108A500EB
:100424002208A6002308A70002300310A40DA50D7E
:10043400A60DA70DFF3E031D172A2708F300260863
:10044400F2002508F1002408F0000030F7007A30AB
:10045400F6001230F5000030F4000A128A119622D8
:100464000A128A117008FF3E831603139300940145
:10047400871507160800F601F31F412A422A492A64
:10048400F209F309F20A0319F30AF601F60AF11F55
:100494004C2A4D2A522AF009F109F00A0319F10AEB
:1004A400700871040319572A582A872AF501F50A96
:1004B400662A01300310F00DF10DFF3E031D5C2A86
:1004C4000130F4007408F507F11F692A6A2A5B2ACF
:1004D40071087302031D702A70087202031C732AC8
:1004E400742A7A2A7008F2027108031CF303F302D7
:1004F40001300310F10CF00CFF3E031D7B2A013088
:10050400F502031D862A872A6A2A760803198B2A8C
:100514008C2A912AF209F309F20A0319F30A7308DF
:10052400F1007208F00008000030FC000030FB000D
:100534000030FA000030F90073087204710470048A
:100544000319A52AA62AF32AFD01FD0AB62A0130B9
:10055400F8000310F00DF10DF20DF30DF80BAB2ABA
:100564000130F8007808FD07F31FB92ABA2AA92A2E
:100574000130F8000310F90DFA0DFB0DFC0DF80B1A
:10058400BC2A73087702031DD12A72087602031D60
:10059400D12A71087502031DD12A70087402031C44
:1005A400D42AD52AE42A7008F4027108031C710FB6
:1005B400F5027208031C720FF6027308031C730F12
:1005C400F702791401300310F30CF20CF10CF00C67
:1005D400FF3E031DE52A0130FD02031DF22AF32A22
:1005E400BA2A7C08F3007B08F2007A08F100790843
:1005F400F000080083120313A101F81F022B032B40
:100604000A2BF709F809F70A0319F80AA101A10A44
:10061400FA1F0D2B0E2B172BF909FA09F90A0319E6
:10062400FA0A0130FB007B08A106A201A3017708A6
:10063400780403191E2B1F2B562BA001A00A2D2B67
:1006440001300310F70DF80DFF3E031D232B01307D
:10065400FB007B08A007F81F302B312B222B013025
:100664000310A20DA30DFF3E031D322B78087A025E
:10067400031D3E2B77087902031C412B422B492B87
:100684007708F9027808031CFA03FA0222140130ED
:100694000310F80CF70CFF3E031D4A2B0130A00297
:1006A400031D552B562B312B210803195A2B5B2B79
:1006B400602BA209A309A20A0319A30A2308F800BC
:1006C4002208F70008000A128A117E210A128A11F0
:1006D4000A128A118A200A128A110030F800F900DD
:1006E4000130FA000030FB00123083120313B9000A
:1006F4003908FC000A128A1153210A128A110530A2
:10070400F8000030F9000230FA000030FB0031300C
:1007140083120313B9003908FC000A128A11532109
:100724000A128A11F430F0000130F1000A128A1121
:10073400AA210A128A110030F800F9000130FA00E7
:100744000030FB00223083120313B9003908FC0087
:100754000A128A1153210A128A110030F800F90092
:100764000230FA000030FB00013083120313B90099
:100774003908FC000A128A1153210A128A110A123A
:100784008A11EC200A128A110A128A1199200A127B
:100794008A113130F0000030F1000A128A11AB20C6
:1007A4000A128A110030F000F1000A128A11D721CE
:1007B4000A128A11710883120313C9007008C80051
:1007C4000A128A11A2200A128A111430F000003091
:1007D400F1000A128A11AA210A128A110A128A1134
:1007E40099200A128A113330F0000030F1000A1205
:1007F4008A11AB200A128A110030F000F1000A12AB
:100804008A11D7210A128A11710883120313C700AF
:100814007008C6000A128A11A2200A128A11143022
:10082400F0000030F1000A128A11AA210A128A117A
:100834000A128A1199200A128A115530F0000030E8
:10084400F1000A128A11AB200A128A110030F0005A
:10085400F1000A128A11D7210A128A11710883122F
:100864000313C5007008C4000A128A11A2200A12D8
:100874008A111430F0000030F1000A128A11AA2102
:100884000A128A11063083120313A1000030A20059
:100894004708A4004608A3000A128A115F240A121A
:1008A4008A118312031348080A128A11CC250A12EA
:1008B4008A11C62B0A128A110028922D2208F900E7
:1008C4002108F8000230FA000030FB003830A5009F
:1008D4002508FC000A128A1153210A128A11CB2D11
:1008E4002208F9002108F8000230FA000030FB0069
:1008F4003B30A5002508FC000A128A1153210A1274
:100904008A11CB2D2208F9002108F8000230FA00E0
:100914000030FB003E30A5002508FC000A128A11B5
:1009240053210A128A11CB2D2208F9002108F8005C
:100934000230FA000030FB004130A5002508FC001D
:100944000A128A1153210A128A11CB2D2208F900A6
:100954002108F8000230FA000030FB004430A50002
:100964002508FC000A128A1153210A128A11CB2D80
:100974002208F9002108F8000230FA000030FB00D8
:100984004730A5002508FC000A128A1153210A12D7
:100994008A11CB2D2208F9002108F8000230FA0050
:1009A4000030FB004A30A5002508FC000A128A1119
:1009B40053210A128A11CB2D2208F9002108F800CC
:1009C4000230FA000030FB003530A5002508FC0099
:1009D4000A128A1153210A128A11CB2D2208F90016
:1009E4002108F8000230FA000030FB004C30A5006A
:1009F4002508FC000A128A1153210A128A11CB2DF0
:100A04002208F9002108F8000230FA000030FB0047
:100A14004E30A5002508FC000A128A1153210A123F
:100A24008A11CB2D2208F9002108F8000230FA00BF
:100A34000030FB003730A5002508FC000A128A119B
:100A440053210A128A11CB2D2208F9002108F8003B
:100A54000230FA000030FB003A30A5002508FC0003
:100A64000A128A1153210A128A11CB2D2208F90085
:100A74002108F8000230FA000030FB003D30A500E8
:100A84002508FC000A128A1153210A128A11CB2D5F
:100A94002208F9002108F8000230FA000030FB00B7
:100AA4004030A5002508FC000A128A1153210A12BD
:100AB4008A11CB2D2208F9002108F8000230FA002F
:100AC4000030FB004330A5002508FC000A128A11FF
:100AD40053210A128A11CB2D2208F9002108F800AB
:100AE4000230FA000030FB004630A5002508FC0067
:100AF4000A128A1153210A128A11CB2D2208F900F5
:100B04002108F8000230FA000030FB004930A5004B
:100B14002508FC000A128A1153210A128A11CB2DCE
:100B2400831203132408003A0319992D802D2308F6
:100B3400003A0319602C013A0319722C033A031981
:100B4400842C013A0319962C073A0319A82C013A6C
:100B54000319BA2C033A0319CC2C013A0319DE2CDD
:100B64000F3A0319F02C013A0319022D033A031921
:100B7400142D013A0319262D073A0319382D013A89
:100B840003194A2D033A03195C2D013A03196E2DFA
:100B9400802D080083120313B600FA303602031CBA
:100BA400D42DD52DD92DFA30A4002408B600B801CF
:100BB4003230F7000030F8003230F0000030F1003D
:100BC4003608A400A5012408F2002508F3000A123F
:100BD4008A113D220A128A11831203133608A600D1
:100BE40070082602F90071090318013EFA000A127E
:100BF4008A11FC220A128A11770883120313A700B0
:100C04002708AF003608A400A5012408F20025082F
:100C1400F3003230F0000030F1000A128A113D2254
:100C24000A128A11710883120313B3007008B20008
:100C34000530F7000030F8003230F0000030F100E9
:100C44003608A400A5012408F2002508F3000A12BE
:100C54008A113D220A128A11700883120313A60016
:100C64007108A7000530F0000030F1003308F300EC
:100C74003208F2000A128A113D220A128A117008FF
:100C8400831203132602F9007108031C710A270258
:100C9400FA000A128A11FC220A128A1177088312B6
:100CA4000313A8002808B0003608A400A5012408EE
:100CB400F2002508F3003230F0000030F1000A128F
:100CC4008A113D220A128A11710883120313B30098
:100CD4007008B2000530F0000030F1003308F30072
:100CE4003208F2000A128A113D220A128A1170088F
:100CF40083120313A4002407A5002508B10029309A
:100D040084000630FF0083138001840AFF0B852EC4
:100D14002F08A400A5012408A9002508AA0030086A
:100D2400A400A5012408AB002508AC003108A400E8
:100D3400A5012408AD002508AE00B401B501831255
:100D440003133408A4002407293E840083130008F5
:100D5400A5002508B70034083504031DB22EB32EB0
:100D6400B42EB80134033504031DB92EBA2EBE2E99
:100D74000230A4002408B800023034063504031DF0
:100D8400C42EC52EC92E0330A4002408B800370889
:100D9400031DCD2ECE2EE22E3808A400A501240872
:100DA400F8002508F9000230FA000030FB00383062
:100DB400A6002608FC000A128A1153210A128A117D
:100DC400831203133703031DE82EE92EFD2E380882
:100DD400A400A5012408F8002508F9000230FA004F
:100DE4000030FB003B30A6002608FC000A128A11E2
:100DF40053210A128A110230831203133706031D8A
:100E0400042F052F192F3808A400A5012408F80081
:100E14002508F9000230FA000030FB003E30A6003D
:100E24002608FC000A128A1153210A128A1103307F
:100E3400831203133706031D202F212F352F380863
:100E4400A400A5012408F8002508F9000230FA00DE
:100E54000030FB004130A6002608FC000A128A116B
:100E640053210A128A110430831203133706031D17
:100E74003C2F3D2F512F3808A400A5012408F80069
:100E84002508F9000230FA000030FB004430A600C7
:100E94002608FC000A128A1153210A128A1105300D
:100EA400831203133706031D582F592F6D2F38084B
:100EB400A400A5012408F8002508F9000230FA006E
:100EC4000030FB004730A6002608FC000A128A11F5
:100ED40053210A128A110630831203133706031DA5
:100EE400742F752F892F3808A400A5012408F80051
:100EF4002508F9000230FA000030FB004A30A60051
:100F04002608FC000A128A1153210A128A1107309A
:100F1400831203133706031D902F912FA52F380832
:100F2400A400A5012408F8002508F9000230FA00FD
:100F34000030FB003530A6002608FC000A128A1196
:100F440053210A128A110830831203133706031D32
:100F5400AC2FAD2FC12F3808A400A5012408F80038
:100F64002508F9000230FA000030FB004C30A600DE
:100F74002608FC000A128A1153210A128A11093028
:100F8400831203133706031DC82FC92FDD2F38081A
:100F9400A400A5012408F8002508F9000230FA008D
:100FA4000030FB004E30A6002608FC000A128A110D
:100FB40053210A128A11013083120313B407031850
:100FC400B50A0030B5073508803AFF0080307F024B
:100FD400031DEE2F03303402031CF12FF22FA12E38
:100FE400080083133A3084004A300A128A1191208F
:0C0FF4000A128A1183010A128A11652B6F
:04400E00F5E3FFFFD8
:00000001FF
